:1000000000308A00BC2C00000A108A100A118207F6
:1000100028340C34013406340A108A100A1182077D
:100020000C3449344E342E344634253433342E3493
:1000300032346C34643400340A108A100A11820796
:1000400069346E342E346334253433342E343234F0
:100050006C34643400340A108A100A1182070C349C
:100060006F3474342E346634253433342E343234C1
:100070006C34643400340A108A100A1182076F3419
:1000800074342E346334253433342E3432346C34A7
:100090006434003483160611831206118316061287
:1000A00083120612D02CB0012F08300203187228D8
:1000B0002E080139003A031D6228831606138312A5
:1000C0000613662883160613831206170310AE0C58
:1000D000831686138312861783168613831286135C
:1000E000B00A5428003483168613831286138316AD
:1000F00006128312061683160611831206152C08A3
:10010000AE000830AF0053202D08AE000830AF001D
:1001100053208316061183120611831606128312CA
:100120000612D52CB0012F0830020318AA28831616
:10013000861383128617831606178312061BA228BE
:100140000310A3280314B10C83168613831286139D
:10015000B00A93283108F8000034BE01A01020082E
:100160008316870083128714000083168814831275
:100170008818BC283E10BD283E14831688158312AB
:100180008819C428BE10C528BE1483168816831289
:10019000881ACC283E11CD283E1583168817831265
:1001A000881BD428BE11D528BE15A01020088316A0
:1001B0008700831287103E08F80000343D18E228BB
:1001C0008810E3288814831688108312BD18EA2843
:1001D0008811EB2888158316881183123D19F2289F
:1001E0008812F3288816831688128312BD19FA28FC
:1001F0008813FB2888178316881300008312A01029
:10020000200883168700831287140330F700F70B4A
:100210000729A01020088316870083128710003456
:10022000A01120088316870083128711A0122008CE
:1002300083168700831287160000AD207808BD0062
:10024000AD207808BC003D0EF700F030F7057708C8
:100250003C04F8007808BC00BC1B1629BA08031936
:100260003829A011200883168700831287153E299C
:10027000A011200883168700831287110000A012A6
:10028000200883168700831287120000A010200820
:1002900083168700831287103B0EBC000F30BC050D
:1002A0003C08BD00DE203B080F39BC00BD00DE204D
:1002B000003436308400000803196B290630F8003A
:1002C000F701F70B6129F80B60297B30F700F70B7A
:1002D0006729800B5E2900343508F7000C3077025F
:1002E00003197B290A307702031983290830770222
:1002F000031999299E29BA010130BB00102102304F
:10030000B6005921A4290130B6000230B700370BDE
:100310008A298D294030B8008E29B8010130360273
:10032000B80738088038B900BA013908BB00102175
:10033000A429BA011030BB001021A4290130BA0051
:100340003508BB001021A42900342F08F8012E0223
:100350000318AD292E08F700B929F7010830B000BD
:10036000AE0DF70D2F0877020318F700F80DB00B4C
:10037000B029003478082C08AE006430AF00A52105
:100380007708AC0078083030031DCD292D18D3290B
:10039000AD19D3292D1A2030CF29AD112D12F80710
:1003A0007808B5006C212C08AE000A30AF00A521FA
:1003B0007708AC0078083030031DE229AD19E62932
:1003C0002D1A2030F8077808B5006C213030AC07C2
:1003D0002C08B5006C210034A0112008831687007A
:1003E00083128711A01220088316870083128712B8
:1003F000A010200883168700831287100F30B600E4
:100400005921AC012C08023C031C0E2A0330BD000C
:10041000DE200530B6005921AC0A022A0230BD00A8
:10042000DE20AC012C08033C031C1F2A2C080420EE
:10043000AD00BA012D08BB001021AC0A122A00340D
:100440000830F80000000430F700F70B252A0610EA
:10045000831606100630F700F70B2C2A8312B20D14
:100460008610031C362A83168614831203183B2A2F
:100470008316861083128316061483120618422AE6
:1004800083163D2AF80B222A0430F700F70B462A80
:10049000061083160610000086140630F700F70BCE
:1004A0004F2A0630F700F70B532A0614831206185A
:1004B0005B2A8316562AF8010630F700F70B5E2AEE
:1004C0008618781406108316061083128610831679
:1004D00086108312003483168610831286148316C6
:1004E000061083120614831686140430F700F70BE7
:1004F000772A06140630F700F70B7C2A8312861041
:10050000831686100430F700F70B842A8312061036
:100510008316061083122C08B20020225130B2003C
:1005200020228316861000000614831206189A2AC9
:100530008316952A0430F700F70B9C2A0000000070
:100540000000831686140430F700F70BA52A0C3040
:100550008312AD002C08AE00831686140430F70019
:10056000F70BB02A06140630F700F70BB52A8312F2
:100570008610831686100430F700F70BBD2A83120D
:1005800006108316061083122E08B2002022AC300B
:10059000B20020222D08B20020228316861000000F
:1005A000061483120618D62A8316D12A0430F700BF
:1005B000F70BD82A000000000000831686140430D0
:1005C000F700F70BE12A831200340830B2007708F5
:1005D000B300831686140630F700F70BED2A0614D5
:1005E00083120618F52A8316F02A86180314861C2F
:1005F0000310F80D0430F700F70BFC2A83160610E1
:1006000083120610B20BE92A831686140630F7000F
:10061000F70B082B8312861033080319122B83164D
:1006200086108312000083160614831206181A2BF4
:100630008316152B0430F700F70B1C2B06108316BE
:1006400006100630F700F70B232B83128610831653
:100650008610831200341030F700FA01B701B40C91
:10066000B30C031C392B3508FA070318B70A3608F0
:10067000B707B70CFA0CF90CF80CF70B2F2B00345A
:10068000360838068039BA00B61F4B2BB509B609B3
:10069000B50A0319B60AB81F522BB709B809B70A29
:1006A0000319B80AF801F901F701FA013808031D26
:1006B0005C2B37080319762B1030B9000310B50DE9
:1006C000B60DF70DFA0D38087A02031D692B3708AD
:1006D0007702031C722B3708F702031CFA03380851
:1006E000FA020314F80DF90DB90B5E2B0000BA1FC6
:1006F0007E2BF809F909F80A0319F90A0034831660
:1007000086140430F700F70B832B06140630F7002D
:10071000F70B882B83128610831686100430F7009F
:10072000F70B902B831206108316061083122C08E9
:10073000B2002022AA30B200202283168614043090
:10074000F700F70BA12B06140630F700F70BA62BCA
:1007500083128610831686100430F700F70BAE2B39
:100760008312061083160610013083122C07B10085
:10077000B20020220130F700E5227808AD00F70131
:10078000E5227808AE008316861000000614831256
:100790000618CC2B8316C72B0430F700F70BCE2B93
:1007A000000000000000831686140430F700F70BE9
:1007B000D72B8312B2012D08B100AD1BB203320852
:1007C000B4002D08B300B6016430B5002B237908BE
:1007D000B0007808AF002E0EF7000F30F70577084D
:1007E000B200B4017708B300B6013230B5002B2354
:1007F0007908B4007808B3007908B6007808B50025
:10080000B8011030B70040237808AF070318B00ACA
:100810007908B0073008B4002F08B300B6010930DA
:10082000B5002B237908B0007808AF003008B60077
:100830002F08B500B8010530B70040238030780795
:10084000AF007908B0000318B00A0C30B0072F08C9
:10085000F8003008F9000034F801F901F701FA0155
:100860003208031D362C31080319502C1030B30008
:100870000310AF0DB00DF70DFA0D32087A02031D0B
:10088000432C31087702031C4C2C3108F702031C5F
:10089000FA033208FA020314F80DF90DB30B382CE1
:1008A000000000340408B400AE1F5F2C2D30B500EA
:1008B0006C218403AD09AE09AD0A0319AE0A2E0EF0
:1008C000F038B000B007E23EB100323EB3002E086F
:1008D0000F39B107B107B307E93EB200B207B2075B
:1008E0002D0E0F39B207B307B20DB30DB309B30D17
:1008F0002D080F39B307B00D0730AF000A30B3072A
:10090000B203031C7F2CB207B103031C832CB10775
:10091000B003031C872CB007AF03031C8B2C2F30B4
:100920008400073034058407333004020319B42CE3
:100930000008F700031DA22C341AB22CB419A42C01
:100940002030A52C0830B4003030F707AE01040881
:10095000AD007708AF007708B5006C212D08840042
:100960002F08F700840A942C0008F7003030F707AE
:100970007708B5006C21003484011F3083050630F0
:1009800083169F00073083129F00813083169900E1
:1009900026309800903083129800FF30A0004A283B
:1009A0002408AC002508AD00732883168613831233
:1009B00086138316061283120612831606118312FB
:1009C00006151C30AF0092200830AF009220780846
:1009D000A4000830AF0092207808A5000830AF00CE
:1009E00092207808A600831606118312061183163A
:1009F0000612831206120A30B5006C212408AC00DE
:100A00000130AD00BA213A30B5006C212508AC00A8
:100A10000130AD00BA213A30B5006C212608AC0097
:100A20000130AD00BA210A30B5006C2183160516DD
:100A30008312051E842DEC219030AC006B22903087
:100A4000AC007F237908A9007808A8002908B00025
:100A50002808AF00B2016430B1002C247908A90045
:100A60007808A800AC012C080C20AC0AF700B500EF
:100A70006C2105302C02031D332D0230840029081F
:100A8000AE002808AD00522420302802F7002908C3
:100A9000FA000030031C0130FA027708AC007A0833
:100AA000AD00B4010530B3007A08B6007708B50090
:100AB0002B237908AE007808AD007908B0007808DB
:100AC000AF00B2010930B1002C247908AB007808DE
:100AD000AA00AC012C081C20AC0AF700B5006C2160
:100AE00004302C02031D6A2D023084002B08AE0056
:100AF0002A08AD00522483168910831289148316A4
:100B0000851083128510EC2DEC219230AC006B2205
:100B10009230AC007F237908A9007808A800290842
:100B2000B0002808AF00B2016430B1002C2479086D
:100B3000A9007808A800AC012C082B20AC0AF7000B
:100B4000B5006C2105302C02031D9C2D0230840061
:100B50002908AE002808AD00522420302802F700F2
:100B60002908FA000030031C0130FA027708AC00B3
:100B70007A08AD00B4010530B3007A08B6007708F2
:100B8000B5002B237908AE007808AD007908B000D5
:100B90007808AF00B2010930B1002C247908AB000D
:100BA0007808AA00AC012C083B20AC0AF700B5007D
:100BB0006C2104302C02031DD32D0230840029083F
:100BC000AE002808AD0052248316851083128514C8
:100BD0008316891083128910A908031DFC2D28088B
:100BE000503C031CFC2D831685128312851283163C
:100BF000861283128612042E83168512831285169E
:100C00008316861283128616A908031D142E28083F
:100C10004B3C031C142E83160511831205158316F5
:100C20008511831285111C2E83168511831285155B
:0C0C30008316051183120511D52C6300FA
:02400E00723FFF
:00000001FF
;PIC16F877A
